{
  "contractName": "CryptoBirdz",
  "abi": [
    {
      "inputs": [],
      "stateMutability": "nonpayable",
      "type": "constructor"
    },
    {
      "anonymous": false,
      "inputs": [
        {
          "indexed": true,
          "internalType": "address",
          "name": "from",
          "type": "address"
        },
        {
          "indexed": true,
          "internalType": "address",
          "name": "to",
          "type": "address"
        },
        {
          "indexed": true,
          "internalType": "uint256",
          "name": "tokenId",
          "type": "uint256"
        }
      ],
      "name": "Transfer",
      "type": "event"
    },
    {
      "inputs": [
        {
          "internalType": "address",
          "name": "owner",
          "type": "address"
        }
      ],
      "name": "balanceOf",
      "outputs": [
        {
          "internalType": "uint256",
          "name": "",
          "type": "uint256"
        }
      ],
      "stateMutability": "view",
      "type": "function"
    },
    {
      "inputs": [
        {
          "internalType": "uint256",
          "name": "",
          "type": "uint256"
        }
      ],
      "name": "cryptoBirds",
      "outputs": [
        {
          "internalType": "string",
          "name": "",
          "type": "string"
        }
      ],
      "stateMutability": "view",
      "type": "function"
    },
    {
      "inputs": [],
      "name": "name",
      "outputs": [
        {
          "internalType": "string",
          "name": "",
          "type": "string"
        }
      ],
      "stateMutability": "view",
      "type": "function"
    },
    {
      "inputs": [
        {
          "internalType": "uint256",
          "name": "_tokenId",
          "type": "uint256"
        }
      ],
      "name": "ownerOf",
      "outputs": [
        {
          "internalType": "address",
          "name": "",
          "type": "address"
        }
      ],
      "stateMutability": "view",
      "type": "function"
    },
    {
      "inputs": [],
      "name": "symbol",
      "outputs": [
        {
          "internalType": "string",
          "name": "",
          "type": "string"
        }
      ],
      "stateMutability": "view",
      "type": "function"
    },
    {
      "inputs": [
        {
          "internalType": "uint256",
          "name": "index",
          "type": "uint256"
        }
      ],
      "name": "tokenByIndex",
      "outputs": [
        {
          "internalType": "uint256",
          "name": "",
          "type": "uint256"
        }
      ],
      "stateMutability": "view",
      "type": "function"
    },
    {
      "inputs": [
        {
          "internalType": "address",
          "name": "owner",
          "type": "address"
        },
        {
          "internalType": "uint256",
          "name": "index",
          "type": "uint256"
        }
      ],
      "name": "tokenOfOwnerByIndex",
      "outputs": [
        {
          "internalType": "uint256",
          "name": "",
          "type": "uint256"
        }
      ],
      "stateMutability": "view",
      "type": "function"
    },
    {
      "inputs": [],
      "name": "totalSupply",
      "outputs": [
        {
          "internalType": "uint256",
          "name": "",
          "type": "uint256"
        }
      ],
      "stateMutability": "view",
      "type": "function"
    },
    {
      "inputs": [
        {
          "internalType": "string",
          "name": "_CryptoBird",
          "type": "string"
        }
      ],
      "name": "mint",
      "outputs": [],
      "stateMutability": "nonpayable",
      "type": "function"
    }
  ],
  "bytecode": "0x60806040523480156200001157600080fd5b506040518060400160405280600b81526020017f43727970746f426972647a0000000000000000000000000000000000000000008152506040518060400160405280600481526020017f4352425a000000000000000000000000000000000000000000000000000000008152508181816000908162000091919062000328565b508060019081620000a3919062000328565b50505050506200040f565b600081519050919050565b7f4e487b7100000000000000000000000000000000000000000000000000000000600052604160045260246000fd5b7f4e487b7100000000000000000000000000000000000000000000000000000000600052602260045260246000fd5b600060028204905060018216806200013057607f821691505b602082108103620001465762000145620000e8565b5b50919050565b60008190508160005260206000209050919050565b60006020601f8301049050919050565b600082821b905092915050565b600060088302620001b07fffffffffffffffffffffffffffffffffffffffffffffffffffffffffffffffff8262000171565b620001bc868362000171565b95508019841693508086168417925050509392505050565b6000819050919050565b6000819050919050565b60006200020962000203620001fd84620001d4565b620001de565b620001d4565b9050919050565b6000819050919050565b6200022583620001e8565b6200023d620002348262000210565b8484546200017e565b825550505050565b600090565b6200025462000245565b620002618184846200021a565b505050565b5b8181101562000289576200027d6000826200024a565b60018101905062000267565b5050565b601f821115620002d857620002a2816200014c565b620002ad8462000161565b81016020851015620002bd578190505b620002d5620002cc8562000161565b83018262000266565b50505b505050565b600082821c905092915050565b6000620002fd60001984600802620002dd565b1980831691505092915050565b6000620003188383620002ea565b9150826002028217905092915050565b6200033382620000ae565b67ffffffffffffffff8111156200034f576200034e620000b9565b5b6200035b825462000117565b620003688282856200028d565b600060209050601f831160018114620003a057600084156200038b578287015190505b6200039785826200030a565b86555062000407565b601f198416620003b0866200014c565b60005b82811015620003da57848901518255600182019150602085019450602081019050620003b3565b86831015620003fa5784890151620003f6601f891682620002ea565b8355505b6001600288020188555050505b505050505050565b611527806200041f6000396000f3fe608060405234801561001057600080fd5b50600436106100935760003560e01c80635054b464116100665780635054b464146101345780636352211e1461016457806370a082311461019457806395d89b41146101c4578063d85d3d27146101e257610093565b806306fdde031461009857806318160ddd146100b65780632f745c59146100d45780634f6ccce714610104575b600080fd5b6100a06101fe565b6040516100ad9190610b5c565b60405180910390f35b6100be610290565b6040516100cb9190610b97565b60405180910390f35b6100ee60048036038101906100e99190610c50565b61029d565b6040516100fb9190610b97565b60405180910390f35b61011e60048036038101906101199190610c90565b61034d565b60405161012b9190610b97565b60405180910390f35b61014e60048036038101906101499190610c90565b6103be565b60405161015b9190610b5c565b60405180910390f35b61017e60048036038101906101799190610c90565b61046a565b60405161018b9190610ccc565b60405180910390f35b6101ae60048036038101906101a99190610ce7565b61051b565b6040516101bb9190610b97565b60405180910390f35b6101cc6105d2565b6040516101d99190610b5c565b60405180910390f35b6101fc60048036038101906101f79190610e49565b610664565b005b60606000805461020d90610ec1565b80601f016020809104026020016040519081016040528092919081815260200182805461023990610ec1565b80156102865780601f1061025b57610100808354040283529160200191610286565b820191906000526020600020905b81548152906001019060200180831161026957829003601f168201915b5050505050905090565b6000600480549050905090565b60006102a88361051b565b82106102e9576040517f08c379a00000000000000000000000000000000000000000000000000000000081526004016102e090610f3e565b60405180910390fd5b600660008473ffffffffffffffffffffffffffffffffffffffff1673ffffffffffffffffffffffffffffffffffffffff168152602001908152602001600020828154811061033a57610339610f5e565b5b9060005260206000200154905092915050565b6000610357610290565b8210610398576040517f08c379a000000000000000000000000000000000000000000000000000000000815260040161038f90610f3e565b60405180910390fd5b600482815481106103ac576103ab610f5e565b5b90600052602060002001549050919050565b600881815481106103ce57600080fd5b9060005260206000200160009150905080546103e990610ec1565b80601f016020809104026020016040519081016040528092919081815260200182805461041590610ec1565b80156104625780601f1061043757610100808354040283529160200191610462565b820191906000526020600020905b81548152906001019060200180831161044557829003601f168201915b505050505081565b6000806002600084815260200190815260200160002060009054906101000a900473ffffffffffffffffffffffffffffffffffffffff169050600073ffffffffffffffffffffffffffffffffffffffff168173ffffffffffffffffffffffffffffffffffffffff1603610512576040517f08c379a000000000000000000000000000000000000000000000000000000000815260040161050990610fff565b60405180910390fd5b80915050919050565b60008073ffffffffffffffffffffffffffffffffffffffff168273ffffffffffffffffffffffffffffffffffffffff160361058b576040517f08c379a000000000000000000000000000000000000000000000000000000000815260040161058290610fff565b60405180910390fd5b600360008373ffffffffffffffffffffffffffffffffffffffff1673ffffffffffffffffffffffffffffffffffffffff168152602001908152602001600020549050919050565b6060600180546105e190610ec1565b80601f016020809104026020016040519081016040528092919081815260200182805461060d90610ec1565b801561065a5780601f1061062f5761010080835404028352916020019161065a565b820191906000526020600020905b81548152906001019060200180831161063d57829003601f168201915b5050505050905090565b600981604051610674919061105b565b908152602001604051809103902060009054906101000a900460ff16156106d0576040517f08c379a00000000000000000000000000000000000000000000000000000000081526004016106c7906110be565b60405180910390fd5b600881908060018154018082558091505060019003906000526020600020016000909190919091509081610704919061128a565b5060006001600880549050610719919061138b565b90506107253382610760565b6001600983604051610737919061105b565b908152602001604051809103902060006101000a81548160ff0219169083151502179055505050565b61076a8282610781565b61077381610942565b61077d8282610996565b5050565b600073ffffffffffffffffffffffffffffffffffffffff168273ffffffffffffffffffffffffffffffffffffffff16036107f0576040517f08c379a00000000000000000000000000000000000000000000000000000000081526004016107e790611431565b60405180910390fd5b6107f981610a5a565b15610839576040517f08c379a00000000000000000000000000000000000000000000000000000000081526004016108309061149d565b60405180910390fd5b816002600083815260200190815260200160002060006101000a81548173ffffffffffffffffffffffffffffffffffffffff021916908373ffffffffffffffffffffffffffffffffffffffff1602179055506001600360008473ffffffffffffffffffffffffffffffffffffffff1673ffffffffffffffffffffffffffffffffffffffff16815260200190815260200160002060008282546108db91906114bd565b92505081905550808273ffffffffffffffffffffffffffffffffffffffff16600073ffffffffffffffffffffffffffffffffffffffff167fddf252ad1be2c89b69c2b068fc378daa952ba7f163c4a11628f55a4df523b3ef60405160405180910390a45050565b6004805490506004828154811061095c5761095b610f5e565b5b9060005260206000200181905550600481908060018154018082558091505060019003906000526020600020016000909190919091505550565b600660008373ffffffffffffffffffffffffffffffffffffffff1673ffffffffffffffffffffffffffffffffffffffff168152602001908152602001600020805490506007600083815260200190815260200160002081905550600660008373ffffffffffffffffffffffffffffffffffffffff1673ffffffffffffffffffffffffffffffffffffffff1681526020019081526020016000208190806001815401808255809150506001900390600052602060002001600090919091909150555050565b6000806002600084815260200190815260200160002060009054906101000a900473ffffffffffffffffffffffffffffffffffffffff169050600073ffffffffffffffffffffffffffffffffffffffff168173ffffffffffffffffffffffffffffffffffffffff161415915050919050565b600081519050919050565b600082825260208201905092915050565b60005b83811015610b06578082015181840152602081019050610aeb565b60008484015250505050565b6000601f19601f8301169050919050565b6000610b2e82610acc565b610b388185610ad7565b9350610b48818560208601610ae8565b610b5181610b12565b840191505092915050565b60006020820190508181036000830152610b768184610b23565b905092915050565b6000819050919050565b610b9181610b7e565b82525050565b6000602082019050610bac6000830184610b88565b92915050565b6000604051905090565b600080fd5b600080fd5b600073ffffffffffffffffffffffffffffffffffffffff82169050919050565b6000610bf182610bc6565b9050919050565b610c0181610be6565b8114610c0c57600080fd5b50565b600081359050610c1e81610bf8565b92915050565b610c2d81610b7e565b8114610c3857600080fd5b50565b600081359050610c4a81610c24565b92915050565b60008060408385031215610c6757610c66610bbc565b5b6000610c7585828601610c0f565b9250506020610c8685828601610c3b565b9150509250929050565b600060208284031215610ca657610ca5610bbc565b5b6000610cb484828501610c3b565b91505092915050565b610cc681610be6565b82525050565b6000602082019050610ce16000830184610cbd565b92915050565b600060208284031215610cfd57610cfc610bbc565b5b6000610d0b84828501610c0f565b91505092915050565b600080fd5b600080fd5b7f4e487b7100000000000000000000000000000000000000000000000000000000600052604160045260246000fd5b610d5682610b12565b810181811067ffffffffffffffff82111715610d7557610d74610d1e565b5b80604052505050565b6000610d88610bb2565b9050610d948282610d4d565b919050565b600067ffffffffffffffff821115610db457610db3610d1e565b5b610dbd82610b12565b9050602081019050919050565b82818337600083830152505050565b6000610dec610de784610d99565b610d7e565b905082815260208101848484011115610e0857610e07610d19565b5b610e13848285610dca565b509392505050565b600082601f830112610e3057610e2f610d14565b5b8135610e40848260208601610dd9565b91505092915050565b600060208284031215610e5f57610e5e610bbc565b5b600082013567ffffffffffffffff811115610e7d57610e7c610bc1565b5b610e8984828501610e1b565b91505092915050565b7f4e487b7100000000000000000000000000000000000000000000000000000000600052602260045260246000fd5b60006002820490506001821680610ed957607f821691505b602082108103610eec57610eeb610e92565b5b50919050565b7f476c6f62616c20696e646578206973206f7574206f6620626f756e6400000000600082015250565b6000610f28601c83610ad7565b9150610f3382610ef2565b602082019050919050565b60006020820190508181036000830152610f5781610f1b565b9050919050565b7f4e487b7100000000000000000000000000000000000000000000000000000000600052603260045260246000fd5b7f6f776e657220746f6b656e2061646472657373206e6f6e2d6578697374656e6360008201527f6500000000000000000000000000000000000000000000000000000000000000602082015250565b6000610fe9602183610ad7565b9150610ff482610f8d565b604082019050919050565b6000602082019050818103600083015261101881610fdc565b9050919050565b600081905092915050565b600061103582610acc565b61103f818561101f565b935061104f818560208601610ae8565b80840191505092915050565b6000611067828461102a565b915081905092915050565b7f4572726f72202d2043727970746f20416c726561647920457873697400000000600082015250565b60006110a8601c83610ad7565b91506110b382611072565b602082019050919050565b600060208201905081810360008301526110d78161109b565b9050919050565b60008190508160005260206000209050919050565b60006020601f8301049050919050565b600082821b905092915050565b6000600883026111407fffffffffffffffffffffffffffffffffffffffffffffffffffffffffffffffff82611103565b61114a8683611103565b95508019841693508086168417925050509392505050565b6000819050919050565b600061118761118261117d84610b7e565b611162565b610b7e565b9050919050565b6000819050919050565b6111a18361116c565b6111b56111ad8261118e565b848454611110565b825550505050565b600090565b6111ca6111bd565b6111d5818484611198565b505050565b5b818110156111f9576111ee6000826111c2565b6001810190506111db565b5050565b601f82111561123e5761120f816110de565b611218846110f3565b81016020851015611227578190505b61123b611233856110f3565b8301826111da565b50505b505050565b600082821c905092915050565b600061126160001984600802611243565b1980831691505092915050565b600061127a8383611250565b9150826002028217905092915050565b61129382610acc565b67ffffffffffffffff8111156112ac576112ab610d1e565b5b6112b68254610ec1565b6112c18282856111fd565b600060209050601f8311600181146112f457600084156112e2578287015190505b6112ec858261126e565b865550611354565b601f198416611302866110de565b60005b8281101561132a57848901518255600182019150602085019450602081019050611305565b868310156113475784890151611343601f891682611250565b8355505b6001600288020188555050505b505050505050565b7f4e487b7100000000000000000000000000000000000000000000000000000000600052601160045260246000fd5b600061139682610b7e565b91506113a183610b7e565b92508282039050818111156113b9576113b861135c565b5b92915050565b7f4552433732313a206d696e74696e6720746f20746865207a65726f206164647260008201527f6573730000000000000000000000000000000000000000000000000000000000602082015250565b600061141b602383610ad7565b9150611426826113bf565b604082019050919050565b6000602082019050818103600083015261144a8161140e565b9050919050565b7f4552433732313a20416c7265616479206d696e74656400000000000000000000600082015250565b6000611487601683610ad7565b915061149282611451565b602082019050919050565b600060208201905081810360008301526114b68161147a565b9050919050565b60006114c882610b7e565b91506114d383610b7e565b92508282019050808211156114eb576114ea61135c565b5b9291505056fea2646970667358221220e55e66401f4108d7f05518e9ce153379e59e7aaff1dd0fc532ff9fe8a9d033ac64736f6c63430008110033",
  "immutableReferences": {},
  "source": "// SPDX-License-Identifier: MIT\r\npragma solidity ^0.8.17;\r\n\r\n//inmport ERC721 Connector\r\nimport './ERC721Connector.sol';\r\n\r\ncontract CryptoBirdz is ERC721Connector{\r\n    \r\n\r\n    // array to store crypto birds when they mint\r\n    string [] public cryptoBirds;\r\n\r\n    mapping(string => bool) _cryptoBirdsExist;\r\n\r\n    function mint(string memory _CryptoBird) public {\r\n\r\n        require(!_cryptoBirdsExist[_CryptoBird],\r\n        'Error - Crypto Already Exsit');\r\n\r\n       // deprecated uint _id = CryptoBirds.push($_CryptoBird);\r\n       cryptoBirds.push(_CryptoBird);\r\n       uint _id = cryptoBirds.length - 1;\r\n\r\n        _mint(msg.sender, _id);\r\n\r\n        _cryptoBirdsExist[_CryptoBird] = true;\r\n    }\r\n\r\n    constructor() ERC721Connector('CryptoBirdz', 'CRBZ') {\r\n        \r\n    }\r\n        \r\n}",
  "sourcePath": "C:\\xampp\\htdocs\\udemy_nfts\\src\\contracts\\CryptoBirdz.sol",
  "compiler": {
    "name": "solc",
    "version": "0.8.17+commit.8df45f5f.Emscripten.clang"
  },
  "schemaVersion": "3.4.11",
  "updatedAt": "2023-01-14T03:18:21.994Z",
  "devdoc": {
    "kind": "dev",
    "methods": {},
    "version": 1
  },
  "userdoc": {
    "kind": "user",
    "methods": {},
    "version": 1
  }
}