{
  "contractName": "CryptoBirdz",
  "abi": [
    {
      "inputs": [],
      "stateMutability": "nonpayable",
      "type": "constructor"
    },
    {
      "anonymous": false,
      "inputs": [
        {
          "indexed": true,
          "internalType": "address",
          "name": "from",
          "type": "address"
        },
        {
          "indexed": true,
          "internalType": "address",
          "name": "to",
          "type": "address"
        },
        {
          "indexed": true,
          "internalType": "uint256",
          "name": "tokenId",
          "type": "uint256"
        }
      ],
      "name": "Transfer",
      "type": "event"
    },
    {
      "inputs": [
        {
          "internalType": "uint256",
          "name": "",
          "type": "uint256"
        }
      ],
      "name": "cryptoBirds",
      "outputs": [
        {
          "internalType": "string",
          "name": "",
          "type": "string"
        }
      ],
      "stateMutability": "view",
      "type": "function"
    },
    {
      "inputs": [],
      "name": "name",
      "outputs": [
        {
          "internalType": "string",
          "name": "",
          "type": "string"
        }
      ],
      "stateMutability": "view",
      "type": "function"
    },
    {
      "inputs": [],
      "name": "symbol",
      "outputs": [
        {
          "internalType": "string",
          "name": "",
          "type": "string"
        }
      ],
      "stateMutability": "view",
      "type": "function"
    },
    {
      "inputs": [
        {
          "internalType": "string",
          "name": "_CryptoBird",
          "type": "string"
        }
      ],
      "name": "mint",
      "outputs": [],
      "stateMutability": "nonpayable",
      "type": "function"
    }
  ],
  "bytecode": "0x60806040523480156200001157600080fd5b506040518060400160405280600b81526020017f43727970746f426972647a0000000000000000000000000000000000000000008152506040518060400160405280600481526020017f4352425a000000000000000000000000000000000000000000000000000000008152508181816000908162000091919062000328565b508060019081620000a3919062000328565b50505050506200040f565b600081519050919050565b7f4e487b7100000000000000000000000000000000000000000000000000000000600052604160045260246000fd5b7f4e487b7100000000000000000000000000000000000000000000000000000000600052602260045260246000fd5b600060028204905060018216806200013057607f821691505b602082108103620001465762000145620000e8565b5b50919050565b60008190508160005260206000209050919050565b60006020601f8301049050919050565b600082821b905092915050565b600060088302620001b07fffffffffffffffffffffffffffffffffffffffffffffffffffffffffffffffff8262000171565b620001bc868362000171565b95508019841693508086168417925050509392505050565b6000819050919050565b6000819050919050565b60006200020962000203620001fd84620001d4565b620001de565b620001d4565b9050919050565b6000819050919050565b6200022583620001e8565b6200023d620002348262000210565b8484546200017e565b825550505050565b600090565b6200025462000245565b620002618184846200021a565b505050565b5b8181101562000289576200027d6000826200024a565b60018101905062000267565b5050565b601f821115620002d857620002a2816200014c565b620002ad8462000161565b81016020851015620002bd578190505b620002d5620002cc8562000161565b83018262000266565b50505b505050565b600082821c905092915050565b6000620002fd60001984600802620002dd565b1980831691505092915050565b6000620003188383620002ea565b9150826002028217905092915050565b6200033382620000ae565b67ffffffffffffffff8111156200034f576200034e620000b9565b5b6200035b825462000117565b620003688282856200028d565b600060209050601f831160018114620003a057600084156200038b578287015190505b6200039785826200030a565b86555062000407565b601f198416620003b0866200014c565b60005b82811015620003da57848901518255600182019150602085019450602081019050620003b3565b86831015620003fa5784890151620003f6601f891682620002ea565b8355505b6001600288020188555050505b505050505050565b610de7806200041f6000396000f3fe608060405234801561001057600080fd5b506004361061004c5760003560e01c806306fdde03146100515780635054b4641461006f57806395d89b411461009f578063d85d3d27146100bd575b600080fd5b6100596100d9565b6040516100669190610668565b60405180910390f35b610089600480360381019061008491906106d4565b61016b565b6040516100969190610668565b60405180910390f35b6100a7610217565b6040516100b49190610668565b60405180910390f35b6100d760048036038101906100d29190610836565b6102a9565b005b6060600080546100e8906108ae565b80601f0160208091040260200160405190810160405280929190818152602001828054610114906108ae565b80156101615780601f1061013657610100808354040283529160200191610161565b820191906000526020600020905b81548152906001019060200180831161014457829003601f168201915b5050505050905090565b6004818154811061017b57600080fd5b906000526020600020016000915090508054610196906108ae565b80601f01602080910402602001604051908101604052809291908181526020018280546101c2906108ae565b801561020f5780601f106101e45761010080835404028352916020019161020f565b820191906000526020600020905b8154815290600101906020018083116101f257829003601f168201915b505050505081565b606060018054610226906108ae565b80601f0160208091040260200160405190810160405280929190818152602001828054610252906108ae565b801561029f5780601f106102745761010080835404028352916020019161029f565b820191906000526020600020905b81548152906001019060200180831161028257829003601f168201915b5050505050905090565b6005816040516102b9919061091b565b908152602001604051809103902060009054906101000a900460ff1615610315576040517f08c379a000000000000000000000000000000000000000000000000000000000815260040161030c9061097e565b60405180910390fd5b6004819080600181540180825580915050600190039060005260206000200160009091909190915090816103499190610b4a565b506000600160048054905061035e9190610c4b565b905061036a33826103a5565b600160058360405161037c919061091b565b908152602001604051809103902060006101000a81548160ff0219169083151502179055505050565b600073ffffffffffffffffffffffffffffffffffffffff168273ffffffffffffffffffffffffffffffffffffffff1603610414576040517f08c379a000000000000000000000000000000000000000000000000000000000815260040161040b90610cf1565b60405180910390fd5b61041d81610566565b1561045d576040517f08c379a000000000000000000000000000000000000000000000000000000000815260040161045490610d5d565b60405180910390fd5b816002600083815260200190815260200160002060006101000a81548173ffffffffffffffffffffffffffffffffffffffff021916908373ffffffffffffffffffffffffffffffffffffffff1602179055506001600360008473ffffffffffffffffffffffffffffffffffffffff1673ffffffffffffffffffffffffffffffffffffffff16815260200190815260200160002060008282546104ff9190610d7d565b92505081905550808273ffffffffffffffffffffffffffffffffffffffff16600073ffffffffffffffffffffffffffffffffffffffff167fddf252ad1be2c89b69c2b068fc378daa952ba7f163c4a11628f55a4df523b3ef60405160405180910390a45050565b6000806002600084815260200190815260200160002060009054906101000a900473ffffffffffffffffffffffffffffffffffffffff169050600073ffffffffffffffffffffffffffffffffffffffff168173ffffffffffffffffffffffffffffffffffffffff161415915050919050565b600081519050919050565b600082825260208201905092915050565b60005b838110156106125780820151818401526020810190506105f7565b60008484015250505050565b6000601f19601f8301169050919050565b600061063a826105d8565b61064481856105e3565b93506106548185602086016105f4565b61065d8161061e565b840191505092915050565b60006020820190508181036000830152610682818461062f565b905092915050565b6000604051905090565b600080fd5b600080fd5b6000819050919050565b6106b18161069e565b81146106bc57600080fd5b50565b6000813590506106ce816106a8565b92915050565b6000602082840312156106ea576106e9610694565b5b60006106f8848285016106bf565b91505092915050565b600080fd5b600080fd5b7f4e487b7100000000000000000000000000000000000000000000000000000000600052604160045260246000fd5b6107438261061e565b810181811067ffffffffffffffff821117156107625761076161070b565b5b80604052505050565b600061077561068a565b9050610781828261073a565b919050565b600067ffffffffffffffff8211156107a1576107a061070b565b5b6107aa8261061e565b9050602081019050919050565b82818337600083830152505050565b60006107d96107d484610786565b61076b565b9050828152602081018484840111156107f5576107f4610706565b5b6108008482856107b7565b509392505050565b600082601f83011261081d5761081c610701565b5b813561082d8482602086016107c6565b91505092915050565b60006020828403121561084c5761084b610694565b5b600082013567ffffffffffffffff81111561086a57610869610699565b5b61087684828501610808565b91505092915050565b7f4e487b7100000000000000000000000000000000000000000000000000000000600052602260045260246000fd5b600060028204905060018216806108c657607f821691505b6020821081036108d9576108d861087f565b5b50919050565b600081905092915050565b60006108f5826105d8565b6108ff81856108df565b935061090f8185602086016105f4565b80840191505092915050565b600061092782846108ea565b915081905092915050565b7f4572726f72202d2043727970746f20416c726561647920457873697400000000600082015250565b6000610968601c836105e3565b915061097382610932565b602082019050919050565b600060208201905081810360008301526109978161095b565b9050919050565b60008190508160005260206000209050919050565b60006020601f8301049050919050565b600082821b905092915050565b600060088302610a007fffffffffffffffffffffffffffffffffffffffffffffffffffffffffffffffff826109c3565b610a0a86836109c3565b95508019841693508086168417925050509392505050565b6000819050919050565b6000610a47610a42610a3d8461069e565b610a22565b61069e565b9050919050565b6000819050919050565b610a6183610a2c565b610a75610a6d82610a4e565b8484546109d0565b825550505050565b600090565b610a8a610a7d565b610a95818484610a58565b505050565b5b81811015610ab957610aae600082610a82565b600181019050610a9b565b5050565b601f821115610afe57610acf8161099e565b610ad8846109b3565b81016020851015610ae7578190505b610afb610af3856109b3565b830182610a9a565b50505b505050565b600082821c905092915050565b6000610b2160001984600802610b03565b1980831691505092915050565b6000610b3a8383610b10565b9150826002028217905092915050565b610b53826105d8565b67ffffffffffffffff811115610b6c57610b6b61070b565b5b610b7682546108ae565b610b81828285610abd565b600060209050601f831160018114610bb45760008415610ba2578287015190505b610bac8582610b2e565b865550610c14565b601f198416610bc28661099e565b60005b82811015610bea57848901518255600182019150602085019450602081019050610bc5565b86831015610c075784890151610c03601f891682610b10565b8355505b6001600288020188555050505b505050505050565b7f4e487b7100000000000000000000000000000000000000000000000000000000600052601160045260246000fd5b6000610c568261069e565b9150610c618361069e565b9250828203905081811115610c7957610c78610c1c565b5b92915050565b7f4552433732313a206d696e74696e6720746f20746865207a65726f206164647260008201527f6573730000000000000000000000000000000000000000000000000000000000602082015250565b6000610cdb6023836105e3565b9150610ce682610c7f565b604082019050919050565b60006020820190508181036000830152610d0a81610cce565b9050919050565b7f4552433732313a20416c7265616479206d696e74656400000000000000000000600082015250565b6000610d476016836105e3565b9150610d5282610d11565b602082019050919050565b60006020820190508181036000830152610d7681610d3a565b9050919050565b6000610d888261069e565b9150610d938361069e565b9250828201905080821115610dab57610daa610c1c565b5b9291505056fea264697066735822122069147cf2eb440253b303aa6a812037ad20ab4be65616bebbbb61de740103c5c564736f6c63430008110033",
  "immutableReferences": {},
  "source": "// SPDX-License-Identifier: MIT\r\npragma solidity ^0.8.17;\r\n\r\n//inmport ERC721 Connector\r\nimport './ERC721Connector.sol';\r\n\r\ncontract CryptoBirdz is ERC721Connector{\r\n    \r\n\r\n    // array to store crypto birds when they mint\r\n    string [] public cryptoBirds;\r\n\r\n    mapping(string => bool) _cryptoBirdsExist;\r\n\r\n    function mint(string memory _CryptoBird) public {\r\n\r\n        require(!_cryptoBirdsExist[_CryptoBird],\r\n        'Error - Crypto Already Exsit');\r\n\r\n       // deprecated uint _id = CryptoBirds.push($_CryptoBird);\r\n       cryptoBirds.push(_CryptoBird);\r\n       uint _id = cryptoBirds.length - 1;\r\n\r\n        _mint(msg.sender, _id);\r\n\r\n        _cryptoBirdsExist[_CryptoBird] = true;\r\n    }\r\n\r\n    constructor() ERC721Connector('CryptoBirdz', 'CRBZ') {\r\n        \r\n    }\r\n        \r\n}",
  "sourcePath": "C:\\xampp\\htdocs\\udemy_nfts\\src\\contracts\\CryptoBirdz.sol",
  "compiler": {
    "name": "solc",
    "version": "0.8.17+commit.8df45f5f.Emscripten.clang"
  },
  "schemaVersion": "3.4.11",
  "updatedAt": "2023-01-11T21:58:46.637Z",
  "devdoc": {
    "kind": "dev",
    "methods": {},
    "version": 1
  },
  "userdoc": {
    "kind": "user",
    "methods": {},
    "version": 1
  }
}