{
  "contractName": "ERC721Enumerable",
  "abi": [
    {
      "anonymous": false,
      "inputs": [
        {
          "indexed": true,
          "internalType": "address",
          "name": "from",
          "type": "address"
        },
        {
          "indexed": true,
          "internalType": "address",
          "name": "to",
          "type": "address"
        },
        {
          "indexed": true,
          "internalType": "uint256",
          "name": "tokenId",
          "type": "uint256"
        }
      ],
      "name": "Transfer",
      "type": "event"
    },
    {
      "inputs": [
        {
          "internalType": "address",
          "name": "owner",
          "type": "address"
        }
      ],
      "name": "balanceOf",
      "outputs": [
        {
          "internalType": "uint256",
          "name": "",
          "type": "uint256"
        }
      ],
      "stateMutability": "view",
      "type": "function"
    },
    {
      "inputs": [
        {
          "internalType": "uint256",
          "name": "_tokenId",
          "type": "uint256"
        }
      ],
      "name": "ownerOf",
      "outputs": [
        {
          "internalType": "address",
          "name": "",
          "type": "address"
        }
      ],
      "stateMutability": "view",
      "type": "function"
    },
    {
      "inputs": [],
      "name": "totalSupply",
      "outputs": [
        {
          "internalType": "uint256",
          "name": "",
          "type": "uint256"
        }
      ],
      "stateMutability": "view",
      "type": "function"
    }
  ],
  "bytecode": "0x608060405234801561001057600080fd5b50610458806100206000396000f3fe608060405234801561001057600080fd5b50600436106100415760003560e01c806318160ddd146100465780636352211e1461006457806370a0823114610094575b600080fd5b61004e6100c4565b60405161005b9190610251565b60405180910390f35b61007e6004803603810190610079919061029d565b6100d1565b60405161008b919061030b565b60405180910390f35b6100ae60048036038101906100a99190610352565b610181565b6040516100bb9190610251565b60405180910390f35b6000600280549050905090565b60008060008084815260200190815260200160002060009054906101000a900473ffffffffffffffffffffffffffffffffffffffff169050600073ffffffffffffffffffffffffffffffffffffffff168173ffffffffffffffffffffffffffffffffffffffff1603610178576040517f08c379a000000000000000000000000000000000000000000000000000000000815260040161016f90610402565b60405180910390fd5b80915050919050565b60008073ffffffffffffffffffffffffffffffffffffffff168273ffffffffffffffffffffffffffffffffffffffff16036101f1576040517f08c379a00000000000000000000000000000000000000000000000000000000081526004016101e890610402565b60405180910390fd5b600160008373ffffffffffffffffffffffffffffffffffffffff1673ffffffffffffffffffffffffffffffffffffffff168152602001908152602001600020549050919050565b6000819050919050565b61024b81610238565b82525050565b60006020820190506102666000830184610242565b92915050565b600080fd5b61027a81610238565b811461028557600080fd5b50565b60008135905061029781610271565b92915050565b6000602082840312156102b3576102b261026c565b5b60006102c184828501610288565b91505092915050565b600073ffffffffffffffffffffffffffffffffffffffff82169050919050565b60006102f5826102ca565b9050919050565b610305816102ea565b82525050565b600060208201905061032060008301846102fc565b92915050565b61032f816102ea565b811461033a57600080fd5b50565b60008135905061034c81610326565b92915050565b6000602082840312156103685761036761026c565b5b60006103768482850161033d565b91505092915050565b600082825260208201905092915050565b7f6f776e657220746f6b656e2061646472657373206e6f6e2d6578697374656e6360008201527f6500000000000000000000000000000000000000000000000000000000000000602082015250565b60006103ec60218361037f565b91506103f782610390565b604082019050919050565b6000602082019050818103600083015261041b816103df565b905091905056fea2646970667358221220cefae3a265a59bdc5e153f6543b1d8db615568c42b27b6b487ee4a3d74a1310a64736f6c63430008110033",
  "immutableReferences": {},
  "source": "// SPDX-License-Identifier: MIT\r\npragma solidity ^0.8.17;\r\n\r\nimport './ERC721.sol';\r\n\r\n\r\ncontract ERC721Enumerable is ERC721  {\r\n\r\n    uint256[] private _allTokens;\r\n\r\n    // mapping from tokenid to position in _alltokens array\r\n    mapping(uint256 => uint256) private _allTokensIdex;\r\n\r\n    // mapping from owner list of all tokens ids\r\n    mapping(address => uint256[]) private _ownedTokens;\r\n\r\n    //mapping from token id index of the owner token list\r\n    mapping(uint256 => uint256) private _ownedTokensIndex;\r\n\r\n    /// @notice Count NFTs tracked by this contract\r\n    /// @return A count of valid NFTs tracked by this contract, where each one of\r\n    /// them has an assigned and queryable owner not equal to the zero address\r\n    function totalSupply() external view returns(uint256){\r\n        return _allTokens.length;\r\n    }\r\n\r\n    // @notice Enumerate valid NFTs\r\n    // @dev Throws if `_index` >= `totalSupply()`.\r\n    // @param _index A counter less than `totalSupply()`\r\n    // @return The token identifier for the `_index`th NFT,\r\n    //  (sort order not specified)\r\n   // function tokenByIndex(uint256 _index) external view returns (uint256);\r\n\r\n    // @notice Enumerate NFTs assigned to an owner\r\n    // @dev Throws if `_index` >= `balanceOf(_owner)` or if\r\n    //  `_owner` is the zero address, representing invalid NFTs.\r\n    // @param _owner An address where we are interested in NFTs owned by them\r\n    // @param _index A counter less than `balanceOf(_owner)`\r\n    // @return The token identifier for the `_index`th NFT assigned to `_owner`,\r\n    //   (sort order not specified)\r\n    //function tokenOfOwnerByIndex(address _owner, uint256 _index) external view returns (uint256);\r\n\r\n   \r\n\r\n    function _addTokensToTotalSupply(uint256 tokenId) private {\r\n\r\n        _allTokens.push(tokenId);\r\n    }\r\n\r\n    function _mint(address to, uint256 tokenId) internal override(ERC721) {\r\n        super._mint(to, tokenId);\r\n\r\n        // _addTokensToTotalSupply(tokenId);\r\n        addTokensToAllTokenEnumeration(tokenId);\r\n    } \r\n\r\n    function addTokensToAllTokenEnumeration(uint256 tokenId) private{\r\n        return _allTokens.push(tokenId);\r\n    }\r\n\r\n\r\n}\r\n",
  "sourcePath": "C:\\xampp\\htdocs\\udemy_nfts\\src\\contracts\\ERC721Enumerable.sol",
  "compiler": {
    "name": "solc",
    "version": "0.8.17+commit.8df45f5f.Emscripten.clang"
  },
  "schemaVersion": "3.4.11",
  "updatedAt": "2023-01-14T01:48:14.584Z",
  "devdoc": {
    "kind": "dev",
    "methods": {
      "totalSupply()": {
        "returns": {
          "_0": "A count of valid NFTs tracked by this contract, where each one of them has an assigned and queryable owner not equal to the zero address"
        }
      }
    },
    "version": 1
  },
  "userdoc": {
    "kind": "user",
    "methods": {
      "totalSupply()": {
        "notice": "Count NFTs tracked by this contract"
      }
    },
    "version": 1
  }
}